S0110000417566676162655F352E73726563D4
S113000071C0000081C000007FC000007DC00000FE
S11300107BC0000079C0000077C0000075C00000FC
S113002073C0000071C000006FC000006DC000000C
S11300306BC0000069C0000067C0000065C000001C
S113004063C0000061C000005FC000005DC000002C
S1130050DCC0000059C0000057C0000055C00000BB
S113006053C0000051C000004FC000004DC000004C
S11300704BC0000049C0000047C0000045C000005C
S113008043C0000041C000003FC000003DC000006C
S11300903BC0000039C0000037C0000035C000007C
S11300A033C0000031C000002FC000002DC000008C
S11300B02BC0000029C0000027C0000025C000009C
S11300C023C0000021C000001FC000001DC00000AC
S11300D01BC0000019C0000017C0000015C00000BC
S11300E013C0000011241FBECFEFD1E2DEBFCDBF8D
S11300F000E00CBF22E0A0E0B2E001C01D92A430F9
S1130100B207E1F742D0BBC07BCF823031F08430FC
S113011031F0813031F090E005C094E003C098E202
S113012001C091E020910202309103022D39310582
S113013070F42091020230910302290F311D309393
S1130140030220930202982F909592B903C091E084
S113015090930002883049F4109203021092020234
S1130160982F909592B910920002909106018917E8
S1130170E1F32FEF89E698E1215080409040E1F7C8
S113018000C000008FEF82B908958FEF81B982B962
S1130190E1E8F0E08081846080838BE791EE9093C6
S11301A0850080938400EFE6F0E0808181608083A5
S11301B078948091060190E0809590958F709927AE
S11301C0892B49F080910102811105C080910601BB
S11301D080958F709ADF809106018095881F88270B
S11301E0881F90910002981720F782B18F7782B907
S11301F0809106018823E4F78FEF82B99091010280
S113020081E0892780930102D4CF1F920F920FB609
S11302100F9211248F939F9380910102882311F1EF
S11302208091020290910302892B61F08091020275
S1130230909103020197909303028093020282B18A
S1130240809582B98091020290910302892B51F426
S11302508FEF82B99091010281E089278093010296
S1130260109200028BE791EE9093850080938400B6
S11302709F918F910F900FBE0F901F901895F89437
S1050280FFCFAA
S9030000FC
